{
  "contractName": "supplyChain",
  "abi": [
    {
      "constant": true,
      "inputs": [
        {
          "name": "",
          "type": "address"
        },
        {
          "name": "",
          "type": "uint256"
        }
      ],
      "name": "selfOrders",
      "outputs": [
        {
          "name": "",
          "type": "uint256"
        }
      ],
      "payable": false,
      "stateMutability": "view",
      "type": "function"
    },
    {
      "anonymous": false,
      "inputs": [
        {
          "indexed": false,
          "name": "index",
          "type": "uint256"
        },
        {
          "indexed": true,
          "name": "deliveryCompany",
          "type": "address"
        },
        {
          "indexed": true,
          "name": "customer",
          "type": "address"
        }
      ],
      "name": "OrderCreated",
      "type": "event"
    },
    {
      "anonymous": false,
      "inputs": [
        {
          "indexed": false,
          "name": "index",
          "type": "uint256"
        },
        {
          "indexed": true,
          "name": "deliveryCompany",
          "type": "address"
        },
        {
          "indexed": true,
          "name": "customer",
          "type": "address"
        }
      ],
      "name": "OrderDelivering",
      "type": "event"
    },
    {
      "anonymous": false,
      "inputs": [
        {
          "indexed": false,
          "name": "index",
          "type": "uint256"
        },
        {
          "indexed": true,
          "name": "deliveryCompany",
          "type": "address"
        },
        {
          "indexed": true,
          "name": "customer",
          "type": "address"
        }
      ],
      "name": "OrderDelivered",
      "type": "event"
    },
    {
      "constant": false,
      "inputs": [
        {
          "name": "_title",
          "type": "string"
        },
        {
          "name": "_description",
          "type": "string"
        },
        {
          "name": "_deliveryCompany",
          "type": "address"
        },
        {
          "name": "_customer",
          "type": "address"
        }
      ],
      "name": "createOrder",
      "outputs": [],
      "payable": false,
      "stateMutability": "nonpayable",
      "type": "function"
    },
    {
      "constant": true,
      "inputs": [
        {
          "name": "_address",
          "type": "address"
        }
      ],
      "name": "getSelfOrderLength",
      "outputs": [
        {
          "name": "",
          "type": "uint256"
        }
      ],
      "payable": false,
      "stateMutability": "view",
      "type": "function"
    },
    {
      "constant": true,
      "inputs": [],
      "name": "getOrderLength",
      "outputs": [
        {
          "name": "",
          "type": "uint256"
        }
      ],
      "payable": false,
      "stateMutability": "view",
      "type": "function"
    },
    {
      "constant": true,
      "inputs": [
        {
          "name": "_index",
          "type": "uint256"
        }
      ],
      "name": "getOrder",
      "outputs": [
        {
          "name": "",
          "type": "string"
        },
        {
          "name": "",
          "type": "string"
        },
        {
          "name": "",
          "type": "address"
        },
        {
          "name": "",
          "type": "address"
        },
        {
          "name": "",
          "type": "address"
        },
        {
          "name": "",
          "type": "uint8"
        }
      ],
      "payable": false,
      "stateMutability": "view",
      "type": "function"
    },
    {
      "constant": false,
      "inputs": [
        {
          "name": "_index",
          "type": "uint256"
        }
      ],
      "name": "startDeliveringOrder",
      "outputs": [],
      "payable": false,
      "stateMutability": "nonpayable",
      "type": "function"
    },
    {
      "constant": false,
      "inputs": [
        {
          "name": "_index",
          "type": "uint256"
        }
      ],
      "name": "stopDelivering",
      "outputs": [],
      "payable": false,
      "stateMutability": "nonpayable",
      "type": "function"
    },
    {
      "constant": false,
      "inputs": [
        {
          "name": "_index",
          "type": "uint256"
        }
      ],
      "name": "acceptOrder",
      "outputs": [],
      "payable": false,
      "stateMutability": "nonpayable",
      "type": "function"
    },
    {
      "constant": false,
      "inputs": [
        {
          "name": "_index",
          "type": "uint256"
        }
      ],
      "name": "declineOrder",
      "outputs": [],
      "payable": false,
      "stateMutability": "nonpayable",
      "type": "function"
    }
  ],
  "bytecode": "0x608060405234801561001057600080fd5b5061141e806100206000396000f3fe608060405260043610610099576000357c0100000000000000000000000000000000000000000000000000000000900463ffffffff16806384e9d5381461009e5780639b70dcd6146100d95780639d4971b714610114578063a09d310c1461013f578063a9d1af88146101a4578063aa6e2a7214610213578063ccbdb85c146103b2578063d09ef241146103ed578063ef18e9ed146105bb575b600080fd5b3480156100aa57600080fd5b506100d7600480360360208110156100c157600080fd5b81019080803590602001909291905050506105f6565b005b3480156100e557600080fd5b50610112600480360360208110156100fc57600080fd5b81019080803590602001909291905050506107bd565b005b34801561012057600080fd5b50610129610984565b6040518082815260200191505060405180910390f35b34801561014b57600080fd5b5061018e6004803603602081101561016257600080fd5b81019080803573ffffffffffffffffffffffffffffffffffffffff169060200190929190505050610990565b6040518082815260200191505060405180910390f35b3480156101b057600080fd5b506101fd600480360360408110156101c757600080fd5b81019080803573ffffffffffffffffffffffffffffffffffffffff169060200190929190803590602001909291905050506109dc565b6040518082815260200191505060405180910390f35b34801561021f57600080fd5b506103b06004803603608081101561023657600080fd5b810190808035906020019064010000000081111561025357600080fd5b82018360208201111561026557600080fd5b8035906020019184600183028401116401000000008311171561028757600080fd5b91908080601f016020809104026020016040519081016040528093929190818152602001838380828437600081840152601f19601f820116905080830192505050505050509192919290803590602001906401000000008111156102ea57600080fd5b8201836020820111156102fc57600080fd5b8035906020019184600183028401116401000000008311171561031e57600080fd5b91908080601f016020809104026020016040519081016040528093929190818152602001838380828437600081840152601f19601f820116905080830192505050505050509192919290803573ffffffffffffffffffffffffffffffffffffffff169060200190929190803573ffffffffffffffffffffffffffffffffffffffff169060200190929190505050610a0c565b005b3480156103be57600080fd5b506103eb600480360360208110156103d557600080fd5b8101908080359060200190929190505050610dac565b005b3480156103f957600080fd5b506104266004803603602081101561041057600080fd5b8101908080359060200190929190505050610ec6565b6040518080602001806020018773ffffffffffffffffffffffffffffffffffffffff1673ffffffffffffffffffffffffffffffffffffffff1681526020018673ffffffffffffffffffffffffffffffffffffffff1673ffffffffffffffffffffffffffffffffffffffff1681526020018573ffffffffffffffffffffffffffffffffffffffff1673ffffffffffffffffffffffffffffffffffffffff1681526020018460048111156104d457fe5b60ff168152602001838103835289818151815260200191508051906020019080838360005b838110156105145780820151818401526020810190506104f9565b50505050905090810190601f1680156105415780820380516001836020036101000a031916815260200191505b50838103825288818151815260200191508051906020019080838360005b8381101561057a57808201518184015260208101905061055f565b50505050905090810190601f1680156105a75780820380516001836020036101000a031916815260200191505b509850505050505050505060405180910390f35b3480156105c757600080fd5b506105f4600480360360208110156105de57600080fd5b81019080803590602001909291905050506111af565b005b803373ffffffffffffffffffffffffffffffffffffffff1660008281548110151561061d57fe5b906000526020600020906005020160030160009054906101000a900473ffffffffffffffffffffffffffffffffffffffff1673ffffffffffffffffffffffffffffffffffffffff1614151561067157600080fd5b816000600481111561067f57fe5b60008281548110151561068e57fe5b906000526020600020906005020160040160149054906101000a900460ff1660048111156106b857fe5b1415156106c457600080fd5b600080848154811015156106d457fe5b906000526020600020906005020190508060040160009054906101000a900473ffffffffffffffffffffffffffffffffffffffff1673ffffffffffffffffffffffffffffffffffffffff168160020160009054906101000a900473ffffffffffffffffffffffffffffffffffffffff1673ffffffffffffffffffffffffffffffffffffffff167f8f3a13f55e685e5c9e7796435daa54d081fdc930d7079309a7b178fc4fb3cc2f866040518082815260200191505060405180910390a360018160040160146101000a81548160ff021916908360048111156107b257fe5b021790555050505050565b803373ffffffffffffffffffffffffffffffffffffffff166000828154811015156107e457fe5b906000526020600020906005020160030160009054906101000a900473ffffffffffffffffffffffffffffffffffffffff1673ffffffffffffffffffffffffffffffffffffffff1614151561083857600080fd5b816001600481111561084657fe5b60008281548110151561085557fe5b906000526020600020906005020160040160149054906101000a900460ff16600481111561087f57fe5b14151561088b57600080fd5b6000808481548110151561089b57fe5b906000526020600020906005020190508060040160009054906101000a900473ffffffffffffffffffffffffffffffffffffffff1673ffffffffffffffffffffffffffffffffffffffff168160020160009054906101000a900473ffffffffffffffffffffffffffffffffffffffff1673ffffffffffffffffffffffffffffffffffffffff167fdc1e5c46473f967c85111ae5c5574dd672193f524398a75ee01ff59586c224a6866040518082815260200191505060405180910390a360028160040160146101000a81548160ff0219169083600481111561097957fe5b021790555050505050565b60008080549050905090565b6000600160008373ffffffffffffffffffffffffffffffffffffffff1673ffffffffffffffffffffffffffffffffffffffff168152602001908152602001600020805490509050919050565b6001602052816000526040600020818154811015156109f757fe5b90600052602060002001600091509150505481565b610a146112c9565b60c0604051908101604052808681526020018581526020013373ffffffffffffffffffffffffffffffffffffffff1681526020018473ffffffffffffffffffffffffffffffffffffffff1681526020018373ffffffffffffffffffffffffffffffffffffffff16815260200160006004811115610a8d57fe5b81525090506000808054905090508273ffffffffffffffffffffffffffffffffffffffff168473ffffffffffffffffffffffffffffffffffffffff167fd4e0aaf5be9b8773c644dfebba8b63f878965712ad8589d85ca4bc9d1b671e2c836040518082815260200191505060405180910390a3600082908060018154018082558091505090600182039060005260206000209060050201600090919290919091506000820151816000019080519060200190610b4a92919061134d565b506020820151816001019080519060200190610b6792919061134d565b5060408201518160020160006101000a81548173ffffffffffffffffffffffffffffffffffffffff021916908373ffffffffffffffffffffffffffffffffffffffff16021790555060608201518160030160006101000a81548173ffffffffffffffffffffffffffffffffffffffff021916908373ffffffffffffffffffffffffffffffffffffffff16021790555060808201518160040160006101000a81548173ffffffffffffffffffffffffffffffffffffffff021916908373ffffffffffffffffffffffffffffffffffffffff16021790555060a08201518160040160146101000a81548160ff02191690836004811115610c6157fe5b0217905550505050600160003373ffffffffffffffffffffffffffffffffffffffff1673ffffffffffffffffffffffffffffffffffffffff168152602001908152602001600020819080600181540180825580915050906001820390600052602060002001600090919290919091505550600160008573ffffffffffffffffffffffffffffffffffffffff1673ffffffffffffffffffffffffffffffffffffffff168152602001908152602001600020819080600181540180825580915050906001820390600052602060002001600090919290919091505550600160008473ffffffffffffffffffffffffffffffffffffffff1673ffffffffffffffffffffffffffffffffffffffff168152602001908152602001600020819080600181540180825580915050906001820390600052602060002001600090919290919091505550505050505050565b803373ffffffffffffffffffffffffffffffffffffffff16600082815481101515610dd357fe5b906000526020600020906005020160040160009054906101000a900473ffffffffffffffffffffffffffffffffffffffff1673ffffffffffffffffffffffffffffffffffffffff16141515610e2757600080fd5b8160026004811115610e3557fe5b600082815481101515610e4457fe5b906000526020600020906005020160040160149054906101000a900460ff166004811115610e6e57fe5b141515610e7a57600080fd5b60008084815481101515610e8a57fe5b9060005260206000209060050201905060048160040160146101000a81548160ff02191690836004811115610ebb57fe5b021790555050505050565b606080600080600080610ed76112c9565b600088815481101515610ee657fe5b906000526020600020906005020160c06040519081016040529081600082018054600181600116156101000203166002900480601f016020809104026020016040519081016040528092919081815260200182805460018160011615610100020316600290048015610f995780601f10610f6e57610100808354040283529160200191610f99565b820191906000526020600020905b815481529060010190602001808311610f7c57829003601f168201915b50505050508152602001600182018054600181600116156101000203166002900480601f01602080910402602001604051908101604052809291908181526020018280546001816001161561010002031660029004801561103b5780601f106110105761010080835404028352916020019161103b565b820191906000526020600020905b81548152906001019060200180831161101e57829003601f168201915b505050505081526020016002820160009054906101000a900473ffffffffffffffffffffffffffffffffffffffff1673ffffffffffffffffffffffffffffffffffffffff1673ffffffffffffffffffffffffffffffffffffffff1681526020016003820160009054906101000a900473ffffffffffffffffffffffffffffffffffffffff1673ffffffffffffffffffffffffffffffffffffffff1673ffffffffffffffffffffffffffffffffffffffff1681526020016004820160009054906101000a900473ffffffffffffffffffffffffffffffffffffffff1673ffffffffffffffffffffffffffffffffffffffff1673ffffffffffffffffffffffffffffffffffffffff1681526020016004820160149054906101000a900460ff16600481111561116457fe5b600481111561116f57fe5b815250509050806000015181602001518260400151836060015184608001518560a001518595508494509650965096509650965096505091939550919395565b803373ffffffffffffffffffffffffffffffffffffffff166000828154811015156111d657fe5b906000526020600020906005020160040160009054906101000a900473ffffffffffffffffffffffffffffffffffffffff1673ffffffffffffffffffffffffffffffffffffffff1614151561122a57600080fd5b816002600481111561123857fe5b60008281548110151561124757fe5b906000526020600020906005020160040160149054906101000a900460ff16600481111561127157fe5b14151561127d57600080fd5b6000808481548110151561128d57fe5b9060005260206000209060050201905060038160040160146101000a81548160ff021916908360048111156112be57fe5b021790555050505050565b60c0604051908101604052806060815260200160608152602001600073ffffffffffffffffffffffffffffffffffffffff168152602001600073ffffffffffffffffffffffffffffffffffffffff168152602001600073ffffffffffffffffffffffffffffffffffffffff1681526020016000600481111561134757fe5b81525090565b828054600181600116156101000203166002900490600052602060002090601f016020900481019282601f1061138e57805160ff19168380011785556113bc565b828001600101855582156113bc579182015b828111156113bb5782518255916020019190600101906113a0565b5b5090506113c991906113cd565b5090565b6113ef91905b808211156113eb5760008160009055506001016113d3565b5090565b9056fea165627a7a723058205506bbee6ea36bbe41ca3c1d051ac45a3260fd9d1e2ead4f118f2d53702e20020029",
  "source": "pragma solidity ^0.5.0;\r\n\r\n\r\ncontract supplyChain\r\n{\r\n\r\n    enum Status{Created,Delivering,Delivered,Accepted,Declined}\r\n\r\n    event OrderCreated(uint index,address indexed deliveryCompany,address indexed customer);\r\n    event OrderDelivering(uint index,address indexed deliveryCompany,address indexed customer);\r\n    event OrderDelivered(uint index,address indexed deliveryCompany,address indexed customer);\r\n\r\n    Order[] orders;\r\n\r\n    mapping (address=>uint[]) public selfOrders;\r\n\r\n    struct Order\r\n    {\r\n        string title;\r\n        string description;\r\n        address supplier;\r\n        address deliveryCompany;\r\n        address customer;\r\n        Status status;\r\n    }\r\n\r\n    function createOrder(string memory _title,string memory _description,address _deliveryCompany,address _customer)\r\n    public\r\n    {\r\n        Order memory order = Order({\r\n            title : _title,\r\n            description : _description,\r\n            supplier : msg.sender,\r\n            deliveryCompany : _deliveryCompany,\r\n            customer : _customer,\r\n            status : Status.Created\r\n        });\r\n        uint index = orders.length;\r\n        emit OrderCreated(index,_deliveryCompany,_customer);\r\n        orders.push(order);\r\n        selfOrders[msg.sender].push(index);\r\n        selfOrders[_deliveryCompany].push(index);\r\n        selfOrders[_customer].push(index);\r\n    }\r\n    \r\n    function getSelfOrderLength(address _address) public view returns(uint)\r\n    {\r\n        return selfOrders[_address].length;\r\n    }\r\n\r\n    modifier OnlyCustomer(uint _index)\r\n    {\r\n        require(orders[_index].customer == msg.sender);\r\n        _;\r\n    }\r\n\r\n    modifier onlyOrderDeliveryCompany(uint _index)\r\n    {\r\n        require(orders[_index].deliveryCompany==msg.sender);\r\n        _;\r\n    }\r\n\r\n    modifier orderCreated(uint _index)\r\n    {\r\n        require(orders[_index].status==Status.Created);\r\n        _;\r\n    }\r\n\r\n    modifier orderDelivering(uint _index)\r\n    {\r\n        require(orders[_index].status==Status.Delivering);\r\n        _;\r\n    }\r\n\r\n    modifier orderDelivered(uint _index)\r\n    {\r\n        require(orders[_index].status==Status.Delivered);\r\n        _;\r\n    }\r\n    \r\n    function getOrderLength() public view returns (uint)\r\n    {\r\n        return orders.length;\r\n    }\r\n\r\n    function getOrder(uint _index) public view returns(string memory,string memory,address,address,address,Status)\r\n    {\r\n        Order memory order = orders[_index];\r\n        return (order.title,order.description,order.supplier,order.deliveryCompany,order.customer,order.status);\r\n    }\r\n\r\n    function startDeliveringOrder(uint _index) public onlyOrderDeliveryCompany(_index) orderCreated(_index)\r\n    {\r\n        Order storage order = orders[_index];\r\n        emit OrderDelivering(_index,order.supplier,order.customer);\r\n        order.status = Status.Delivering;\r\n    }\r\n\r\n    function stopDelivering(uint _index) public onlyOrderDeliveryCompany(_index) orderDelivering(_index)\r\n    {\r\n        Order storage order = orders[_index];\r\n        emit OrderDelivered(_index,order.supplier,order.customer);\r\n        order.status = Status.Delivered;\r\n    }\r\n\r\n    function acceptOrder(uint _index) public OnlyCustomer(_index) orderDelivered(_index)\r\n    {\r\n        Order storage order = orders[_index];\r\n        order.status = Status.Accepted;\r\n    }\r\n\r\n    function declineOrder(uint _index) public OnlyCustomer(_index) orderDelivered(_index)\r\n    {\r\n        Order storage order = orders[_index];\r\n        order.status = Status.Declined;\r\n    }\r\n\r\n}",
  "sourcePath": "C:/Users/pruthvitaranath/Desktop/supplyChain/contracts/SupplyChain.sol",
  "compiler": {
    "name": "solc",
    "version": "0.5.0+commit.1d4f565a.Emscripten.clang"
  },
  "schemaVersion": "3.0.9",
  "updatedAt": "2019-05-27T04:57:54.315Z",
  "devdoc": {
    "methods": {}
  },
  "userdoc": {
    "methods": {}
  }
}